:100000000C943E000C9448000C9448000C9448005A
:100010000C9448000C9448000C9448000C94480040
:100020000C9448000C9448000C9448000C94480030
:100030000C9448000C9448000C9448000C94480020
:100040000C9448000C9448000C9448000C94480010
:100050000C9448000C9448000C9448000C94480000
:100060000C9448000C9448000C9448000C944800F0
:100070000C9448000C9448000C94480011241FBEB6
:10008000CFEFD8E0DEBFCDBF0E945C000C946500CE
:100090000C94000090E090938900809388009093E6
:1000A0008B0080938A0081EA8093800082E08093B5
:1000B00081001092820008958FEF84B98AB98EEF83
:0E00C0000E944A0090E080E00895F894FFCF7F
:00000001FF
