:100000000C943E000C9448000C9448000C9448005A
:100010000C9448000C9448000C9448000C94480040
:100020000C9448000C9448000C9448000C94480030
:100030000C9448000C9448000C9448000C94480020
:100040000C9448000C9448000C9448000C94480010
:100050000C9448000C9448000C9448000C94480000
:100060000C9448000C9448000C9448000C944800F0
:100070000C9448000C9448000C94480011241FBEB6
:10008000CFEFD8E0DEBFCDBF0E944A000C947800CD
:100090000C9400008FEF81B984B987B91AB821E0B8
:1000A00032E025B94FEF89E698E141508040904019
:1000B000E1F700C0000035B9EFEFF9E648E1E150A3
:1000C000F0404040E1F700C0000084E690E025B930
:1000D000EFE0F7E23197F1F700C0000035B9EFE04B
:1000E000F7E23197F1F700C00000019781F7D9CF0F
:0400F000F894FFCFB2
:00000001FF
