:100000000C943E000C9448000C9448000C9448005A
:100010000C9448000C9448000C9448000C94480040
:100020000C9448000C9448000C9448000C94480030
:100030000C9448000C9448000C9448000C94480020
:100040000C9448000C9448000C9448000C94480010
:100050000C9448000C9448000C9448000C94480000
:100060000C9448000C9448000C9448000C944800F0
:100070000C9448000C9448000C94480011241FBEB6
:10008000CFEFD8E0DEBFCDBF0E94EF000C948E030F
:100090000C9400004F925F926F927F928F929F928A
:1000A000AF92BF92CF92DF92EF92FF920F931F9386
:1000B000CF93DF9300D000D0CDB7DEB74B015C010A
:1000C00029833A834B835C83270120E030E0A90138
:1000D0000E94C90181111FC015B82FEF33ED80E3D5
:1000E000215030408040E1F700C000000F900F9099
:1000F0000F900F90DF91CF911F910F91FF90EF9094
:10010000DF90CF90BF90AF909F908F907F906F9037
:100110005F904F90089520E030E040E85FE3C50134
:10012000B4010E94C901882309F44FC029813A8192
:100130004B815C8160E074E284EF99E40E94CE011F
:100140006B017C01AC019B0160E074E284EF99E4F7
:100150000E94CE01A80192010E9421032B013C01C3
:100160001A82198211E029813A81B901330F880B73
:10017000990B0E947102A30192010E94C90187FF9D
:10018000B5CF15B9A5019401C701B6010E9421039D
:100190000E944002CB010197F1F715B8A501940127
:1001A00060E070E080E89FE30E945C01A701960197
:1001B0000E9421030E944002CB010197F1F789813F
:1001C0009A8101969A838983CECF81E085B99FEF8A
:1001D00023ED30E3915020403040E1F785CF8FEFA1
:1001E00084B91AB8C1E015B82FEF83ED90E3215020
:1001F00080409040E1F700C00000E12CF12C00E0CD
:1002000010E420E030E040E752E460E070E080E895
:100210009EE30E944A0020E030E040E752E460E0C4
:1002200070E080E09FE30E944A0020E030E040E779
:1002300052E460E070E080E49FE30E944A00C5B9A8
:100240002FEF83ED90E3215080409040E1F700C014
:10025000000015B82FEF83ED90E3215080409040CF
:10026000E1F700C0000020E030E048EC53E460E03B
:1002700070E080E89EE30E944A0020E030E048EC15
:1002800053E460E070E080E09FE30E944A0020E0D9
:1002900030E048EC53E460E070E080E49FE30E94CB
:1002A0004A00C5B92FEF83ED90E321508040904084
:1002B000E1F700C0000097CF5058BB27AA270E9443
:1002C00074010C94E7020E94D90238F00E94E00207
:1002D00020F039F49F3F19F426F40C94D6020EF462
:1002E000E095E7FB0C94D002E92F0E94F80258F346
:1002F000BA17620773078407950720F079F4A6F50B
:100300000C941A030EF4E0950B2EBA2FA02D0B01BE
:10031000B90190010C01CA01A0011124FF27591B4A
:1003200099F0593F50F4503E68F11A16F040A22F50
:10033000232F342F4427585FF3CF469537952795C1
:10034000A795F0405395C9F77EF41F16BA0B620BC0
:10035000730B840BBAF09150A1F0FF0FBB1F661F07
:10036000771F881FC2F70EC0BA0F621F731F841F4A
:1003700048F4879577956795B795F7959E3F08F070
:10038000B0CF9395880F08F09927EE0F9795879532
:1003900008950E94AC0208F481E008950E94E201F1
:1003A0000C94E7020E94E00258F00E94D90240F04B
:1003B00029F45F3F29F00C94D00251110C941B03D7
:1003C0000C94D6020E94F80268F39923B1F35523E6
:1003D00091F3951B550BBB27AA2762177307840758
:1003E00038F09F5F5F4F220F331F441FAA1FA9F3EE
:1003F00035D00E2E3AF0E0E832D091505040E695DC
:10040000001CCAF72BD0FE2F29D0660F771F881F3C
:10041000BB1F261737074807AB07B0E809F0BB0B2F
:10042000802DBF01FF2793585F4F3AF09E3F510543
:1004300078F00C94D0020C941B035F3FE4F3983ED9
:10044000D4F3869577956795B795F7959F5FC9F72C
:10045000880F911D9695879597F90895E1E0660FAD
:10046000771F881FBB1F621773078407BA0720F026
:10047000621B730B840BBA0BEE1F88F7E09508958F
:100480000E94000388F09F5798F0B92F9927B75121
:10049000B0F0E1F0660F771F881F991F1AF0BA9528
:1004A000C9F714C0B13091F00E941A03B1E0089569
:1004B0000C941A03672F782F8827B85F39F0B93F5B
:1004C000CCF3869577956795B395D9F73EF49095DB
:1004D0008095709561957F4F8F4F9F4F0895E89459
:1004E00009C097FB3EF490958095709561957F4F7C
:1004F0008F4F9F4F9923A9F0F92F96E9BB2793952A
:10050000F695879577956795B795F111F8CFFAF439
:10051000BB0F11F460FF1BC06F5F7F4F8F4F9F4F6A
:1005200016C0882311F096E911C0772321F09EE8C8
:10053000872F762F05C0662371F096E8862F70E02E
:1005400060E02AF09A95660F771F881FDAF7880F08
:100550009695879597F90895990F0008550FAA0B5E
:10056000E0E8FEEF16161706E807F907C0F01216C6
:100570001306E407F50798F0621B730B840B950BC9
:1005800039F40A2661F0232B242B252B21F408951E
:100590000A2609F4A140A6958FEF811D811D0895BB
:1005A00097F99F6780E870E060E008959FEF80EC26
:1005B000089500240A9416161706180609060895C9
:1005C00000240A9412161306140605060895092E2F
:1005D0000394000C11F4882352F0BB0F40F4BF2B9E
:1005E00011F460FF04C06F5F7F4F8F4F9F4F0895DE
:1005F00057FD9058440F551F59F05F3F71F04795D4
:10060000880F97FB991F61F09F3F79F087950895B8
:10061000121613061406551FF2CF4695F1DF08C0D7
:10062000161617061806991FF1CF869571056105F4
:1006300008940895E894BB2766277727CB0197F99C
:1006400008950E9434030C94E7020E94D90238F006
:100650000E94E00220F0952311F00C94D0020C943B
:10066000D60211240C941B030E94F80270F3959F8C
:10067000C1F3950F50E0551F629FF001729FBB2799
:10068000F00DB11D639FAA27F00DB11DAA1F649F35
:100690006627B00DA11D661F829F2227B00DA11DE8
:1006A000621F739FB00DA11D621F839FA00D611D6E
:1006B000221F749F3327A00D611D231F849F600D8F
:1006C000211D822F762F6A2F11249F5750409AF0B8
:1006D000F1F088234AF0EE0FFF1FBB1F661F771F44
:1006E000881F91505040A9F79E3F510580F00C940F
:1006F000D0020C941B035F3FE4F3983ED4F386953D
:1007000077956795B795F795E7959F5FC1F7FE2BAE
:10071000880F911D9695879597F90895F894FFCFC6
:00000001FF
