:100000000C943E000C9448000C9448000C9448005A
:100010000C9448000C9448000C9448000C94480040
:100020000C9448000C9448000C9448000C94480030
:100030000C9448000C9448000C9448000C94480020
:100040000C9448000C9448000C9448000C94480010
:100050000C9448000C9448000C9448000C94480000
:100060000C9448000C9448000C9448000C944800F0
:100070000C9448000C9448000C94480011241FBEB6
:10008000CFEFD8E0DEBFCDBF0E9459000C948600B0
:100090000C9400004A9B09C08FE19EE40197F1F7A0
:1000A00000C000004A9903C0089580E0089581E0EF
:1000B00008958FEF84B91AB8C12CD12C7601C3945E
:1000C000C2E015B80E944A008823D9F315B80E94EF
:1000D0004A008111FBCF25E0C216D104E104F104EE
:1000E00030F48FEFC81AD80AE80AF80AEACFC5B97F
:1000F0009FEF29E688E1915020408040E1F700C061
:100100000000C12CD12C7601C394DBCFF894FFCF33
:00000001FF
