:100000000C943E000C9448000C9448000C9448005A
:100010000C9448000C9448000C9448000C94480040
:100020000C9448000C9448000C9448000C94480030
:100030000C9448000C9448000C9448000C94480020
:100040000C9448000C9448000C9448000C94480010
:100050000C9448000C9448000C9448000C94480000
:100060000C9448000C9448000C9448000C944800F0
:100070000C9448000C9448000C94480011241FBEB6
:10008000CFEFD8E0DEBFCDBF0E946A000C948F0096
:100090000C94000081E085B98FE79EE30197F1F7AA
:1000A00000C0000082E085B98FE097E20197F1F788
:1000B00000C0000008954A9B09C08FE19EE40197AB
:1000C000F1F700C000004A9903C0089580E0089548
:1000D00081E008958FEF84B91AB8C2E0D1E0C5B9C4
:1000E0000E945B008823D9F30E944A000E945B00B3
:1000F0008111FACFD5B90E945B008823D9F3C5B925
:100100000E945B008111FBCF15B80E945B00882321
:10011000D9F3D5B90E945B008111FBCFE0CFF894F1
:02012000FFCF0F
:00000001FF
