:100000000C943E000C9472000C9450000C94500020
:100010000C9450000C9450000C9450000C94500020
:100020000C9450000C9450000C9450000C94500010
:100030000C9450000C9450000C9450000C94500000
:100040000C9450000C9450000C9450000C945000F0
:100050000C9450000C9450000C9450000C945000E0
:100060000C9450000C9450000C9450000C945000D0
:100070000C9450000C9450000C94500011241FBE9E
:10008000CFEFD8E0DEBFCDBF21E0A0E0B1E001C0FE
:100090001D92A130B207E1F70E94BE000C94D90076
:1000A0000C94000081E085B98FE79EE30197F1F79A
:1000B00000C0000082E085B98FE097E20197F1F778
:1000C00000C0000008954A9B09C08FE19EE401979B
:1000D000F1F700C000004A9903C0089580E0089538
:1000E00081E008951F920F920FB60F9211248F9303
:1000F0009F938FE59AEE0197F1F700C0000089B158
:10010000847090910001923009F160F49923A1F07C
:100110009130C1F0E09A9F918F910F900FBE0F9098
:100120001F9018959430D1F0A8F0953099F781116F
:10013000F1CF10920001EECF882361F381E080932C
:100140000001E8CF8111E6CF82E0F9CF882311F3D7
:1001500083E0F5CF8111DECF84E0F1CF8823D1F2A7
:1001600085E0EDCFF8948FEF84B91AB8E89AE9E604
:10017000F0E0808181608083789408950E94B200CD
:10018000D2E0C1E080910001823069F038F4882328
:1001900061F08130B9F70E945200F4CF843039F019
:1001A00020F0853079F7C5B9EDCFD5B9EBCF15B8CB
:0601B000E9CFF894FFCF37
:00000001FF
