:100000000C943E000C9448000C9448000C9448005A
:100010000C9448000C9448000C9448000C94480040
:100020000C9448000C9448000C9448000C94480030
:100030000C9448000C9448000C9448000C94480020
:100040000C9448000C9448000C9448000C94480010
:100050000C9448000C9448000C9448000C94480000
:100060000C9448000C9448000C9448000C944800F0
:100070000C9448000C9448000C94480011241FBEB6
:10008000CFEFD8E0DEBFCDBF0E946F000C94A6007A
:100090000C940000CF93DF93462F30E020E0C3E0C4
:1000A000D0E0E0EDF7E0C901BE010E947E006115DD
:1000B000710511F461E070E045B9CF01861B970B23
:1000C0000197F1F715B8CB010197F1F72E5F3F4F7C
:1000D000203787E1380739F7DF91CF9108958FEF07
:1000E00084B961E070E080E090E00E944A0062E044
:1000F00070E080E090E00E944A00F3CF97FB072E6B
:1001000016F4009407D077FD09D00E94920007FCF6
:1001100005D03EF4909581959F4F08957095619517
:100120007F4F0895AA1BBB1B51E107C0AA1FBB1F2D
:10013000A617B70710F0A61BB70B881F991F5A9573
:10014000A9F780959095BC01CD010895F894FFCF53
:00000001FF
