:100000000C943E000C9461000C9450000C94500031
:100010000C9450000C9450000C9450000C94500020
:100020000C9450000C9450000C9450000C94500010
:100030000C9450000C9452000C9450000C945000FE
:100040000C9450000C9450000C9450000C945000F0
:100050000C9450000C9450000C9450000C945000E0
:100060000C9450000C9450000C9450000C945000D0
:100070000C9450000C9450000C94500011241FBE9E
:10008000CFEFD8E0DEBFCDBF21E0A0E0B1E001C0FE
:100090001D92A330B207E1F70E94A8000C94D10092
:1000A0000C9400001F920F920FB60F9211248F93A1
:1000B00081E0809302018F910F900FBE0F901F90EF
:1000C00018951F920F920FB60F9211248F939F9342
:1000D0008FE59AEE0197F1F700C000004A9B03C03C
:1000E00081E08093010180910001811106C080911F
:1000F0000201811109C081E085B99F918F910F9014
:100100000FBE0F901F90189582E0F6CF109202015B
:10011000109285001092840090938900809388004B
:1001200088E08093800085E08093810010928200B7
:1001300082E080936F000895F8948FEF84B91AB825
:10014000E89AE9E6F0E080818360808378940895FE
:100150000E949C0081E08093000115B82FEF83E29C
:1001600094EF215080409040E1F700C0000082E011
:1001700085B92FEF80E792E0215080409040E1F771
:1001800000C0000015B81092000185E89EE10E94B1
:100190008600809101018823E1F3F89490E080E0EB
:0601A0000895F894FFCF62
:00000001FF
